:10000000103C0020CD5C000035E30100BD5B00002A
:10001000BD5B0000BD5B0000BD5B0000BD5B000080
:10002000BD5B0000BD5B0000BD5B0000595A0000D5
:10003000BD5B0000BD5B0000115A000017E301002A
:100040008D5C0000057301008D5C00008D5C00007C
:100050008D5C00008D5C00008D5C00008D5C0000FC
:100060008D5C00008D5C00008D5C00008D5C0000EC
:100070008D5C00008D5C00008D5C00008D5C0000DC
:100080008D5C00008D5C00008D5C00008D5C0000CC
:100090008D5C00008D5C00008D5C00008D5C0000BC
:1000A0008D5C00008D5C00008D5C00008D5C0000AC
:1000B0008D5C00008D5C00008D5C00008D5C00009C
:1000C0008D5C00008D5C00008D5C00008D5C00008C
:1000D0008D5C00008D5C00008D5C00008D5C00007C
:1000E0008D5C00008D5C00008D5C00008D5C00006C
:1000F0008D5C00008D5C00008D5C00008D5C00005C
:1001000053B94AB9002908BF00281CBF4FF0FF317E
:100110004FF0FF3000F06EB9ADF1080C6DE904CE80
:1001200000F006F8DDF804E0DDE9022304B07047D2
:100130002DE9F047089D0E4604468C46002B40F002
:1001400081808A42174645D9B2FA82F24AB1C2F199
:10015000200106FA02F320FA01F1974041EA030C6C
:1001600094404FEA174E230CBCFBFEF6B9B20EFBCF
:1001700016CC43EA0C4306FB01F0984209D9FB1860
:1001800006F1FF3C80F01581984240F21281023E58
:100190003B441B1AA4B2B3FBFEF00EFB103344EA3F
:1001A000034400FB01F1A14209D93C1900F1FF33DE
:1001B00080F00181A14240F2FE8002383C44641A82
:1001C00040EA064000211DB1D4400023C5E90043A8
:1001D000BDE8F08702B9FFDEB2FA82F2002A4FD101
:1001E000CB1B4FEA174E1FFA87F80121B3FBFEFC29
:1001F000260C0EFB1C3346EA034608FB0CF3B34205
:1002000007D9BE190CF1FF3002D2B34200F2EB80E5
:100210008446F61AA3B2B6FBFEF00EFB106643EA64
:10022000064408FB00F8A04507D93C1900F1FF334C
:1002300002D2A04500F2D2801846A4EB080440EA9E
:100240000C40C0E78B4208D9002D00F0AF800021A0
:10025000C5E900060846BDE8F087B3FA83F1002936
:1002600049D1B34202D3824200F2BB80841A66EBCA
:10027000030301209C46002DAAD0C5E9004CA7E746
:10028000C2F120039740D8409140DE404FEA174E1C
:1002900008434FEA104CB6FBFEF11FFA87F80EFB3D
:1002A00011664CEA064601FB08F3B34204FA02F475
:1002B00009D9BE1901F1FF3C80F08E80B34240F2B3
:1002C0008B8002393E44F31A86B2B3FBFEF00EFB7C
:1002D000103346EA034600FB08F3B34207D9BE19C0
:1002E00000F1FF3C74D2B34272D902383E44F31A93
:1002F00040EA01417AE7C1F1200703FA01F422FA4A
:1003000007F31C4320FA07F906FA01F34FEA144CED
:10031000FE4049EA03094FEA1943B6FBFCFE1FFA07
:1003200084F80CFB1E6643EA06460EFB08FAB2454B
:1003300002FA01F200FA01F308D9A6190EF1FF3012
:1003400048D2B24546D9AEF1020E2644A6EB0A06C3
:100350001FFA89F9B6FBFCF00CFB106649EA064669
:1003600000FB08F8B04507D9A61900F1FF3C2DD2D3
:10037000B0452BD90238264440EA0E40A6EB0806C9
:10038000A0FB02894E45C446CE4618D315D075B39E
:10039000B3EB0C0266EB0E0606FA07F722FA01F33E
:1003A000CE401F43C5E90076002111E729462846C3
:1003B0000EE76646EDE6184601E74345E7D2B8EB9F
:1003C000020C69EB04040138A646E0E76046D3E777
:1003D00060468CE78646B9E7614674E702383C44DC
:1003E0002BE7084647E7ACF1020C3E4411E72946EB
:1003F000EEE600BF704700BF2DE9F041424DD5F851
:10040000D430996811F0010186B01FD101AA40F6DD
:10041000034007F0DBFD0446002871D1019B9B6877
:100420001B7883B905F1700318461EF032FABFF34A
:100430005B8F00F0050053E8002F43E8000100291E
:10044000F9D1BFF35B8F019819F0D6FB01AA002107
:1004500041F2030007F0BAFD0446002850D1019B89
:100460002A489968082201311EF03EF8019819F0D7
:10047000C3FB214601AA41F2010007F0A7FD044693
:1004800000283DD1019883685A782A74D9789A78DF
:1004900042EA01226A821A796A74197ADA7942EA9E
:1004A0000122AA825A799B7942EA0323EB8219F04E
:1004B000A3FB214601AA41F2020007F087FD044692
:1004C000F0B9019B12489968402201311EF00CF8E6
:1004D00095F84230019843F0060385F8423019F050
:1004E0008BFB2B7F58061BD40A4B0B490B48C91AB0
:1004F000C908890141F001011DF0D6F86FF012041E
:10050000204606B0BDE8F08188580020A0580020A1
:10051000A858002014110200D41102003B3E020032
:10052000214601AA42F2030007F050FD04460028CC
:10053000E6D1019BB6489968082201311DF0D4FF2D
:10054000019819F059FB214601AA42F2020007F076
:100550003DFD04460028D3D1019B9B68B3F80120E0
:10056000A5F8882091B221B1DA78AA48114620F086
:10057000F3F9019819F040FB2E7F16F0200600F0E9
:10058000CA8095F83C30190711D501AA002142F222
:100590001C0007F01BFD04460028B1D101988368B8
:1005A00053F8012F5B68C5E9202319F025FB95F866
:1005B00078309A0600F1CB8095F878305B0600F130
:1005C000F280082142F2010007F0A6FB0446002851
:1005D00000F0A880082108441FF0B3FD95F87810BA
:1005E00011F0400F40F2022308BF03238F07024699
:1005F0004CBF43F02C0043F00C0095F879308E0688
:1006000048BF40F0400013F0090F95F8423018BF82
:1006100040F4006003F00603C90748BF40F0100033
:10062000062B08BF40F4C07000211EF08EF9214651
:10063000002242F2010007F0C9FC044600287FF4C2
:100640005FAF2B7F9A061ED4B5F88810D9B901AADE
:1006500041F2050007F0BAFC044600287FF450AFD1
:10066000B5F8883063B9019B9B685A78997842EA5B
:100670000122A5F888209A886648114620F06CF976
:10068000019819F0B9FA082140F6014007F044FB3F
:100690000446002846D0082108441FF052FD95F872
:1006A0007830DB07024640F1AB8057A1D1E9000169
:1006B0001EF04BF92146002240F6014007F086FC6F
:1006C000044600287FF41CAF01466A464FF60140FD
:1006D00007F07CFC504E514BF61AF608B601002884
:1006E00000F0A8804E4846F002011CF0DDFF09F042
:1006F000DBFE044600287FF403AF4A494A4820F055
:10070000BDF9EB79002B40F0FD80484846F003012D
:100710001CF0CAFFF4E6022140F66D4007F0FCFA37
:10072000044610B96FF03604EAE6022108301FF0E3
:1007300008FD0123037046702146324640F66D40A5
:1007400007F044FC044600283FF41BAFD8E601AA9A
:10075000002142F22F0007F039FC044600287FF404
:10076000CFAE01988368B3F80180B3F8037019F035
:1007700043FA042142F2240007F0CEFA064600288C
:10078000D0D0042108301FF0DCFC2246A0F8008005
:100790004780314642F2240007F018FC0446002846
:1007A0003FF40AAFACE6022142F22E0007F0B4FAA1
:1007B00004460028B6D0022108301FF0C2FC6FF0BA
:1007C0007B030370032343702146002242F22E0074
:1007D00007F0FCFB044600287FF492AE014601AA14
:1007E00042F22A0007F0F2FB044600287FF488AEAC
:1007F000019883685B7885F8A43019F0FDF9E0E68C
:100800000B484FF0005153E7908800020080002011
:100810000059002014590020D411020014110200C4
:100820005F3E02006D81000070590020333F0200DE
:1008300010880002009B37489C68B4F80120032A06
:1008400096BF3549354951F8221046F003031CF094
:100850004CFFB4F80110B4F80320022946F003035A
:100860002ED1032A2CD82E4951F822102D481CF0E5
:100870003CFF62792C48032A96BF2C49274951F83E
:100880002210CDE90112A2790392B4F80720049254
:10089000D4F80920059246F00303052201A91CF0B3
:1008A00059FF009819F0A8F96A4600214FF6024056
:1008B00007F08CFB044628B11D4846F0020114E7FE
:1008C0001649D3E7009B1B489968022201311DF0AD
:1008D0000BFE009819F090F96A4621464FF6034046
:1008E00007F074FB18B1144846F00201FDE6009BC6
:1008F00012489968012211441DF0F6FD009819F084
:100900007BF9F4E604210E481DF0CFFF08F06EF9E4
:10091000F6E500BF833E0200881902009438020009
:10092000501902009C3E0200B43E0200B8190200B9
:10093000E13E0200E95800200A3F0200E85800208A
:10094000F8580020000000002DE9F04FA74C8FB0B0
:1009500094F8CC50022305F001050C93002800F018
:10096000BD80ADBB94F8290094F87C7094F82C20DD
:1009700027262D2300F0030006FB074716FB02364F
:1009800015F03EFF94F8DA00810707F17D0704EBCC
:10099000060922D4A05D2946C0F380100FF05EF94D
:1009A00006228046014609F102001DF09DFD4146E8
:1009B0000622B81C1DF098FDA35D5A064FF0FF08F3
:1009C00023D413F00E0F2CD1636A002B00F01C818E
:1009D0000C2528460FB0BDE8F08FC0F380002A46F2
:1009E00004F1DB0115F0B0FFFF28804640F0DC8108
:1009F0007E484A46414615F01DFF3A467B4841462F
:100A000015F018FFA35D5A06DBD5062109F1020097
:100A10000EF054F8002800F06182A35D13F00E0F71
:100A2000D2D094F8283084F82A80C3F342030121FD
:100A30000DA88DF834300EF0C5F9E0B1A25D99F83B
:100A400001307F7802F00F02022A00F1FF3100F03E
:100A5000AF81012A00F04C82FF008037002A40F06D
:100A60003F821033DA0002F54D70384402F59A7374
:100A700003FB0100A6E1656A002DA9D0EB6D63B10F
:100A80005B4A5C495C484FF499631BF0BFFC4040F3
:100A900080F311884FF0030002DF05F1500105F1EA
:100AA0004C000EF01BF80646002800F0578228681C
:100AB000EE6512F091FE0026D4F8D400666211F0C3
:100AC00049FCD4F8D000C4F8D46011F037FC0C25F0
:100AD0002846C4F8D0600FB0BDE8F08F0D93002D0C
:100AE0003FF476AF204611F0E9FC84420CD0404A36
:100AF0004249414840F2E4431BF088FC404080F307
:100B000011884FF0030002DF94F82830D8070DADAC
:100B10000ED503213A4B0095012200200FF056F824
:100B2000294611F0BFFC002840F0588202230D93A3
:100B30000321334B0095022200200FF047F829468D
:100B400011F0B0FC002840F0ED812E4811F0F2FCCD
:100B5000002840F0D281254811F0BCFC84420CD022
:100B6000234A2649244840F206531BF04FFC4040DC
:100B700080F311884FF0030002DF656A55B3EB6D17
:100B800063B11B4A1B491C484FF499631BF03EFCA0
:100B9000404080F311884FF0030002DF05F150015F
:100BA00005F14C000DF09AFF0646002800F0E481A4
:100BB0002868EE6512F010FE0025D4F8D4006562B6
:100BC00011F0C8FBD4F8D000C4F8D45011F0B6FB33
:100BD000C4F8D05094F8CC3000256FF300032846B9
:100BE00084F8CC300FB0BDE8F08F00BF1C1100209E
:100BF000742002005C210200E01C0200502102006F
:100C0000992401003811002011F092FB824600283F
:100C100000F0868111F098FB0A90002800F099817D
:100C200012F0D4FD8346002800F09081806F4FF6CB
:100C3000FF720BF11C03ABF82C200B93002800F083
:100C40006A810BF16C020BF168010DF043FFBBF8F8
:100C50006420D3499BF83DE09BF8DC009BF840C042
:100C6000CBF82CA10A4042F488729BF8221142F082
:100C700001020EF03F0EABF864206EF07F0E0022F2
:100C800020F0030021F0030162F3000C4FF01B136E
:100C90008BF83DE08BF8DC004FF0060E8BF822114C
:100CA000C048C1498BF83F20CBE91322ABF8322072
:100CB000CBF83420CBF85420ABF8C820ABF8CC20CC
:100CC000ABF8E8208BF8EA20CBF80021ABF8042140
:100CD000ABF81821ABF820218BF82B21CBF878202A
:100CE000ABF87C20ABF8C4E0CBF85C308BF840C0AC
:100CF000CBF81C11CBF860009BF87E009BF872C10A
:100D00009BF85211ABF8502162F3041C21F007014B
:100D100020F01F00ABF87021ABF89821ABF8A421AC
:100D20008BF872C18BF852118BF87E0013F07EF8AD
:100D3000ABF8D60013F080F8DBF8A8319B49ABF88C
:100D4000D8001940CBF8A81113F07CF89BF8AC112F
:100D500060F302018BF8AC1113F07AF80A9BC4F827
:100D6000D4300B9BC4F8D0A063629BF8ACC19BF855
:100D700020E0CBF81CB0010100222CF0780C01F02F
:100D8000700141EA0C0162F3000ECBE96E22CBE95F
:100D90006C22CBE90522CBF8C0218BF8AC118BF883
:100DA00020E017F067FA3CE6284616F03DF81FE60B
:100DB00003F11002D20000FB02F000F5AA706423D8
:100DC00003FB010094F820C0794AE461002767F32F
:100DD000000C3123A0FB0201236084F820C06EA325
:100DE000D3E90023C4E90577C4E90177FFF788F95F
:100DF000B4F8D890E0600EF02BFF8046B9F1000FF8
:100E000007D1A75D07F00F07A7F10107B7FA87F72A
:100E10007F0994F82800E36867F3000010F00106EA
:100E200084F828003AD0634E634A049300200CAF44
:100E3000019305920321CDE90767CDE902000694ED
:100E40000090434602220EF01BFE394611F02AFBA9
:100E500000287FF410AE594905914AF2D832CDE905
:100E6000076700920226CDE90300CDE90100069450
:100E70004346012203210C960EF002FE394611F082
:100E800011FB00287FF4F7AD94F8CC30284643F0EE
:100E9000010384F8CC300FB0BDE8F08F4848454AD4
:100EA000DFF814C10694A9FB0001912707FB091183
:100EB0000CAFCDE90363CDE9072737A3D3E90023BE
:100EC0000296CDF814C0FFF71BF94346CDE9006048
:100ED0000222304603210EF0D3FDCFE7122578E53C
:100EE000062A3FF4BEAD4FF4DA734FF41B70BFE532
:100EF0004FF4F2734FF47F70BAE5324A3249334807
:100F000040F203531BF082FA404080F311884FF007
:100F1000030002DF1FE60BF17000CBF8780090E6CB
:100F2000072556E52A4811F0C9FA84423FF450AD2E
:100F300040F2FD43234A274924481BF067FA40400A
:100F400080F311884FF0030002DF41E50A9811F0A9
:100F500001FA504611F0F2F907253AE5194A1E49FF
:100F60001A4840F2CA431BF051FA404080F31188FE
:100F70004FF0030002DF9AE5124A1749134840F286
:100F8000CA431BF043FA404080F311884FF003003E
:100F900002DF0DE6AFF300808D49FD1A0700000067
:100FA00080F8FFFF480148017F4901000000FFFE73
:100FB00000CA9A3B992401007D290100752B01008C
:100FC000002AE78474200200641F0200E01C020073
:100FD0001C11002050210200EC210200044811F0F5
:100FE0006DFA84423FF4F4AC40F2EE43A2E700BF56
:100FF0001C110020000000002DE9F04F0446808DF8
:101000004FF6FF7398428DB00E46154600F089806A
:1010100094F8E92094F8E80082420ED0801A00F09B
:10102000030002281BD094F8292194F828319A4211
:1010300030D100200DB0BDE8F08F94F852C11CF003
:101040000108F0D194F8051194F804318B4200F0B6
:10105000CC83901E012384F8E90084F8EA3094F8E8
:10106000983194F899219A4206D094F89A2102F086
:101070000601042900F0018494F8EA707B1E052B18
:1010800000F2A583DFE813F070003C03AF02A30376
:101090006603DE0130480DF0C7FC58B394F82831E0
:1010A00084F829310379022243F00303427103716A
:1010B000C271D4F8B03194F82A2102722BB394F89B
:1010C0005221910721D494F8AB21D2071DD4D4F832
:1010D000BC21934204BF1A68C4F8BC21D4F8B421DF
:1010E000B2B91A68026018600368C4E96D000BB9F0
:1010F000C4F8C001B4F8CC0000289AD1B4F8C630C6
:10110000012B1CD9A4F8CC3093E7D4F8B421E2B178
:10111000D4F8B8311A6802601860C4F8B8010368DE
:10112000E5E70E4A0E490F4840F203331BF06EF913
:10113000404080F311884FF0030002DF68E701337D
:10114000A4F8CC300DB0BDE8F08F0360C4E96C00AA
:10115000C4F8B801CBE700BF5C1400208021020076
:1011600024230200E01C0200A94F3B68002B00F082
:101170003685B4F83680628E94F806319044A844DF
:1011800013F003031FFA88F840F01C84B4F8EC90C5
:10119000A8EB090210041FFA82FB3FF544AF94F854
:1011A000701194F8712194F8040184F805018A42C1
:1011B00094F8E80084F8E90009D094F8722102F06C
:1011C0000702052A04BF84F87111A4F8CC303B68EB
:1011D0009C4204BF00233B60D4F80071002F00F054
:1011E000D2853868002800F0CE85B4F80831E28D49
:1011F0004168C4F800119342B4F80A11B4F80CC164
:1012000000F01C87A28DFA804FF00A0E00227B842A
:10121000B984A7F826C087F804E087F8202039466B
:1012200011F09EF811F0A6F82368002B09DAD4E932
:10123000011223F000438A422CBFB61876182360AF
:10124000F61AE38DB4F8087113FB0BF39BB2B3FBF2
:10125000F7F117FB01F292B293421FFA81FA80F084
:101260008085D31A6B4840F2E24202FB03F3A3FBF2
:10127000000165A3D3E90023FEF742FF20F07F4081
:101280000644638EA9EB08081D4494F93D30D04410
:10129000A84440F2E249002BA4F8328009FB07F78A
:1012A000C0F281855C4A5D495D4840F62B131BF016
:1012B000ADF8404080F311884FF0030002DF4FF09B
:1012C0000008BA46B4F80C21B4F80A11554B564838
:1012D000218642F2107C0CFB02723B443844B3FB83
:1012E000F7F301F1060C013AB2FBF7F2B0FBF7F7A6
:1012F00098B2A4F8C6206045B4F80821A4F8D2003A
:10130000A4F8CA70E28502DD401A063880B294F86B
:101310000631A4F8CE00590744BF0023A4F8C83012
:101320000221012018F0C0FA002202210746012004
:101330000DF01EFC3D494FF4E47220460DF0AAFB6F
:10134000C21C5FFA82F93A4B00944A460121002000
:101350000EF03CFC30F002030CD02F4A35493048E7
:1013600040F65A131BF052F8404080F311884FF0BA
:10137000030002DF274BAAFB03AB504622A3D3E9AD
:1013800000235946FEF7BCFE2B4AE368049320F085
:101390007F45A5FB0223072000FB0533BAEB0200C3
:1013A0006BEB0301DFF894E0DFF894C00894069437
:1013B0004FF47A7200240023CDF81CE0CDF814C05D
:1013C0000394FEF79DFE3346CDE90150CDF8008031
:1013D00020464A4601210EF053FB30F002030CD0A8
:1013E0000D4A14490E4840F674131BF00FF84040A4
:1013F00080F311884FF0030002DF002F40F03786A2
:101400006FF0470016E600BF8D49FD1A0700000087
:10141000DC13002000CA9A3B80210200841C0200D9
:10142000E01C02007FC3C901FF59620214120020B0
:10143000C1330100602202008D49FD1A69330100A9
:1014400019630100628EE38E94F8EC1013441D447E
:10145000CE07ADB20A4600F12383B4F8EE30ED1AA0
:101460002B043FF5E0AD94F8646094F8DC3094F818
:10147000E80094F8658084F8E900DF0706F00700CB
:10148000B4F862A00B9008F0070840F1F985D4F891
:101490001C311E0540F1F485B4F8D870B7F5296FFA
:1014A00028BF4FF42967B7F5A47F38BF4FF4A4775E
:1014B0004FF4296911F01C0F40F05186B4F86050C8
:1014C00011F0E00F19D094F865C094F85E004B0954
:1014D00063F3020C590784F865C041F1AE804FEA0E
:1014E000801A0AF5747ACA4528BFCA464FF42963A0
:1014F000534538BF53461FFA83FA94F8AC3194F839
:101500006410D4F800B1C3F3C00363F3C30184F8DB
:101510006410BBF1000F00F01787DBF80000002813
:1015200000F0128794F8641094F865304668C4F8A7
:1015300000619607C1F3020EC3F3020C01F007012C
:1015400003F0070303D40B9A8A4201F0A480A38D11
:10155000ABF806300E2200238BF821E08BF822C076
:101560008BF804208BF82030594610F0F9FED4F89F
:101570000061002E00F0FB863068002800F0F7863E
:10158000B4F860304268C4F80021AB4208D3BB42D3
:1015900006D8B4F86230534502D34B4541F2D881A6
:1015A000A4F86050A4F862A096F82030A28DF280D2
:1015B00043F0030302210922317186F8203086F8B6
:1015C0002120B4F85E30B4F85C20B3841523328552
:1015D00086F823303146A6F826A0758510F0C0FEA7
:1015E00010F0C8FE1FE594F8EC3013F0030500F08E
:1015F0009B8294F93D30002BBFF615AD012D7FF491
:1016000012ADC4480DF010FA054600283FF40BADAA
:10161000C14A037910680D226A714268576843F025
:10162000030304222B71EA7105F108061FB10023A0
:101630000C223146B8473146082204F1F6001CF06E
:1016400053FF042205F1100104F19C001CF04CFF33
:10165000D4F8B031002B00F00A8794F85221970794
:1016600000F1058794F8AB21D60700F10087D4F884
:10167000BC21934204BF1A68C4F8BC21D4F8B42139
:10168000002A01F09081D4F8B8311A682A601D60F0
:10169000C4F8B8512B68002B01F0148110F08EFEB5
:1016A000054600283FF4BFAC95F82030A28DEA80B3
:1016B00043F0030302261721032285F8203085F822
:1016C000211085F8232004F2551108222E7105F10E
:1016D00024001CF009FF94F8533185F82C3094F85D
:1016E000543185F82D302868294610F039FE10F065
:1016F00041FE94F8EC3066F3010384F8EC3092E498
:10170000E38E618E94F8EC200B441D44D207ADB2F9
:1017100000F10A81B4F8F230ED1A2B043FF583ACE6
:1017200094F8E83084F8E93004F13805052204F132
:10173000ED0128461CF0D8FE284605210DF042FB9D
:1017400094F83D30012260F3050384F83D3084F8BD
:10175000C42168E46F480DF067F900283FF463ACDA
:1017600094F8E83084F8E930012302794371D4F821
:10177000B03142F0030212210271C171002B00F05E
:10178000E58294F85221920700F1E08294F8AB21AF
:10179000D70700F1DB82D4F8BC21934204BF1A685A
:1017A000C4F8BC21D4F8B421002A01F0A380D4F8F5
:1017B000B8311A6802601860C4F8B8010368002BD9
:1017C00000F0C984B4F8CA30A4F8CC302BE4534AF2
:1017D0005349544840F289331AF018FE404080F3D0
:1017E00011884FF0030002DF1DE494F8193194F8DA
:1017F0001871BB4258D194F8213194F82071BB4242
:1018000000F02383DB1BDF077FF50DAC94F822315A
:10181000D80740F18F879B0740F1798710F0CEFD04
:10182000014620B394F8203184F8213190F820301B
:10183000A28DC28043F0030381F8203002200622EB
:101840000C23087181F8212081F8233094F82301BA
:10185000B4F82421B4F82631A1F8273081F8240007
:10186000A1F82520086810F07BFD10F083FD94F8A6
:10187000E80094F8E920FFF7D1BB02F00701062940
:1018800001F2D48101A050F821F000BF791C0000C2
:10189000791000007910000079100000E51B0000AD
:1018A000E51B000079100000DB1BD8077FF5BBAB00
:1018B00094F8DC1011F0010700F0F28310F07EFDC7
:1018C00007460028D3D094F8183184F8193190F8DD
:1018D0002030A28DC28043F003030922022041463A
:1018E00087F82030387187F8212087F8232007F106
:1018F000240008221CF023FED4F81C3187F8243081
:10190000C3F307221B0C87F8252087F826303946B9
:10191000A8E700BF5C140020E01300208021020033
:10192000841C0200E01C0200D1480DF07DF8064640
:1019300000283FF478AB238E027994F8EC101D4414
:10194000AB1DA4F8F2306FF30001012342F0030253
:10195000082084F8EC1032717071F371052204F1E3
:10196000ED0130181CF0C0FDD4F8B031B4F8F2200D
:10197000A6F80D20002B00F0CC8094F8522191079E
:1019800000F1C78094F8AB21D20700F1C280D4F8EF
:10199000BC21934204BF1A68C4F8BC21D4F8B42116
:1019A000002A00F0BA87D4F8B8311A6832601E6095
:1019B000C4F8B8613368002B7FF435ABC4F8C0615C
:1019C000FFF731BB012010F0DBFC064600283FF496
:1019D0002AABA7480DF028F8054600283FF423ABB2
:1019E00010F0ECFC238E326894F806014344063371
:1019F00099B2D4F8003153602A79C4F800616FF3CA
:101A000001000C2384F80601A4F8EC1042F0030254
:101A10006B71D4F81031D4F8B001964E2A710022BF
:101A2000EA71A6FB032394F81461B4F808212E721E
:101A3000C3F38F23B4F80A61A5F80B20B4F80C2186
:101A4000A5F80F20A5F80D60A5F81110A5F809302C
:101A5000002800F01A8394F852319F0700F1158393
:101A600094F8AB31DE0700F11083D4F8BC31984212
:101A700004BF0368C4F8BC31D4F8B431002B00F0C3
:101A80005F87D4F8B8311A682A601D60C4F8B8516D
:101A9000286800287FF4C7AAC4F8C051FFF7C3BA6A
:101AA000022010F06DFC074600283FF4BCAA7048E5
:101AB0000CF0BAFF064600283FF4B5AA94F8EC30C3
:101AC0006FF30003C3F38200C3F3421250EA02082B
:101AD00084F8EC30DBB240F0FC8594F8E820A4F800
:101AE000EE80980784F8E92000F1B386434641462A
:101AF0000522727186F8088032797372D4F8B03199
:101B0000718142F0030218213271F171002B7FF4D0
:101B100034AFD4F8B421002A7FF445AF3360C4E970
:101B20006C66C4F8B86146E751480CF07DFF064684
:101B300000283FF478AA94F93D30002B00F1040806
:101B400080F2308494F87E30190700F1408694F8D2
:101B5000ED50002D00F0AF84037994F8DC2043F0C1
:101B60000303D207037140F16086D4F81C315B0790
:101B700040F15B86112203234572C27103727771B3
:101B8000D4F8B031002284F8ED20002B00F0DD8481
:101B900094F85221970700F1D88494F8AB21D50727
:101BA00000F1D384D4F8BC21934204BF1A68C4F86E
:101BB000BC21D4F8B421002A00F00687D4F8B8314B
:101BC0001A6832601E60C4F8B8613368002B00F0F8
:101BD0005E8594F8E83084F8E930FFF724BA3C6079
:101BE000FFF7C7BA02F00702B4F89CC1B4F8A0111D
:101BF000B4F89E91B4F8A281A4F85EC0042AA4F8B7
:101C0000621000F0C28494F89A31062262F3020353
:101C100084F89A31D4F80071002F00F0A28438685B
:101C2000002800F09E8497F820304268B4F82CE039
:101C3000C4F8002143F00303022287F820304FF05C
:101C4000090A1523A7F806E0A7F824C0F9843A7119
:101C500087F823303946A7F82890A7F82A8087F814
:101C600021A010F07DFB10F085FBFFF705BA00BF47
:101C70005C1400205917B7D1C1480CF0D5FE0028DC
:101C80003FF4FAA994F89A21B4F89E11B4F8A2315D
:101C9000A4F8D6100127A4F8D83067F30202092768
:101CA00084F89A210279477194F8DC70818142F0BE
:101CB00003024FF0140C00210271FF074FF01B02CA
:101CC000D4F81CE180F807C04172027240F1CB8366
:101CD0001EF4006F00F0C783B3F5296F28BF4FF4DF
:101CE0002963B3F5A47F38BF4FF4A4734FF429617F
:101CF000D4F8B0214181C381002A00F0488394F8D0
:101D00005231990700F1438394F8AB31DB0700F1BE
:101D10003E83D4F8BC319A4204BF1368C4F8BC3186
:101D2000D4F8B431002B00F02786D4F8B8311A6803
:101D300002601860C4F8B8010268002A00F07B85D0
:101D4000B4F8CA30A4F8CC30FFF796B9D4F8B4216F
:101D5000002A7FF42CAD0360C4E96C00C4F8B8011C
:101D60002DE507FB113340F2E24286489BB202FBAD
:101D700003F3A3FB000180A3D3E90023FEF7C0F91E
:101D8000361AFFF77EBA804A8049814840F6B6038A
:101D90001AF03CFB404080F311884FF0030002DF53
:101DA0003868FFF722BAE26C636C764D03FB1B23A5
:101DB000E36416F04DFB804694F8DC00C0F382002B
:101DC00016F048FB08EB000307FB03F37148E26CD5
:101DD00094F8141103F5742303F23F23A0FB0303CB
:101DE0004FEA934B0BFB0AF07B080244963B9A4266
:101DF00028BF1A4609FB01FC4FF0000EC4E912325D
:101E0000C4F854C05CA3D3E90023C4F8E4E0C4F8E8
:101E100044B0A0FB0501FEF773F9D4F810318446F5
:101E20005D48A0FB0330800A09FB00F052A3D3E910
:101E30000023A0FB0501A6EB0C06FEF761F9A7EB5A
:101E40000B0A20F07F48FFF73DBA94F8717194F8BF
:101E500070319F4200F09E81504F3B68002B00F094
:101E60001B859C427FF4DFA894F8723103F00703CE
:101E7000052B00F2F9860FF2080E5EF823F000BF82
:101E8000A11F0000F31E0000991E00001D1000009D
:101E90001D1000001D1000001CF0020F7FF4C3A8ED
:101EA00010F08CFA014600283FF4E1AC90F82030A5
:101EB00094F87221032060F30202034384F8722134
:101EC000A08D81F82030022718230F7181F821306E
:101ED000B4F87421B4F87631C880B4F878018A84F3
:101EE000B4F87A21CB840F2308854A8581F8233002
:101EF000B8E494F87381B8F1000F40F07B8594F951
:101F00003D30002BC0F2B08594F8723194F87C011A
:101F1000C4F81081052262F30203012284F87231B1
:101F200084F81421002800F04086B4F87431B3FB23
:101F3000F0F3134413FB00F39BB294F8722194F86E
:101F40000601A4F80831C2F3C0039B0020F0070289
:101F500043F002031343B4F87801B4F87A2184F80B
:101F60000631013984F80511A4F80A01A4F80C21FE
:101F7000FFF759B8AFF300808D49FD1A0700000044
:101F80005C14002000CA9A3B80210200402302001A
:101F9000E01C020083DE1B435917B7D1DC1300207D
:101FA000B148B4F83680B4F832900CF03DFD0146EB
:101FB00000283FF45CAC94F872010A794FF0040CED
:101FC0006CF3020042F003024FF0180C84F8720127
:101FD00008EB09030A7181F805C0B4F874C1B4F8BC
:101FE0007601B4F87821A1F808C02B44B4F87AC17E
:101FF00048818A810F200022A1F811304FF0FF3371
:10200000C8710A74CA740A754B758B75CB750B76DB
:102010004B768B76CB760B774B778B772046A1F878
:102020000EC011F093F8B4F8CA3094F8E80094F8B0
:10203000E9203C60A4F8CC30FEF7F0BF228E8A4243
:102040007FF4E0A840F2E24202FB03FA42F210728F
:10205000B4F8C6E002FB0CA2013AB2FBFAF292B26B
:1020600096457FF4CFA803233B71FFF7D8B8012230
:10207000104602210CF07CFD6FF04700FEF7DABF3E
:102080004FF4A477B946FFF715BAD4F8B431002B52
:102090007FF4F7AC2860C4E96C55C4F8B851F8E493
:1020A00071480CF0C1FC804600283FF4E0AB94F886
:1020B00019316E4AC4F81C21013B092284F81931F8
:1020C000427194F93D200379002AACBF08220E2208
:1020D00043F00303C27108220371394610441CF017
:1020E0002EFAD4F81C3188F80830C3F307221B0CF1
:1020F00088F8092088F80A30D4F8B031002B00F0B5
:10210000C28194F85221910700F1BD8194F8AB216E
:10211000D20700F1B881D4F8BC21934204BF1A68F9
:10212000C4F8BC21D4F8B421002A00F05884D4F8B3
:10213000B8311A68C8F80020C3F80080C4F8B88124
:10214000D8F80030002B00F0C183B4F8CA30A4F8EE
:10215000CC30FFF78CBBC4F8C001FFF733BB94F859
:10216000645094F85C30C1F3820060F3020584F897
:102170006450450740F178829D0105F57475BD42B4
:1021800028BF3D464FF42960854238BF0546ADB2B1
:10219000FFF796B994F8987194F89931BB4200F022
:1021A000078294F89A3103F00701062900F24D8561
:1021B0000FF2040C5CF821F0712200001D100000E9
:1021C0001D1000001D100000D5210000D5210000C9
:1021D0001D100000B4F89C21A4F85E2003F0070253
:1021E000B4F8A011B4F89E91B4F8A281A4F86210DA
:1021F000042A00F0E083062262F3020384F89A3195
:10220000D4F80071002F00F0BF833868002800F078
:10221000BB8397F820304268B4F82CC0C4F8002182
:1022200043F0030387F820300222092387F8213086
:102230003A71B4F86220B4F85E10B9841523FA84B8
:10224000A7F806C087F823303946A7F82890A7F8E2
:102250002A8010F085F810F08DF894F8E80094F8D2
:10226000E920FEF7DBBE00BF5C1400207F490100BF
:10227000CB480CF0D9FB014600283FF4F8AA94F8AB
:102280009A21B4F89E01B4F8A231A4F8D60001272F
:10229000A4F8D83067F30202092784F89A210A7952
:1022A0004F7194F8DC70888142F0030214204FF0E3
:1022B000000C0A71FF07D4F81C21C8714FF01B00F5
:1022C00081F809C0087240F18683100540F1C5838A
:1022D000B3F5296F28BF4FF42963B3F5A47F38BF46
:1022E0004FF4A4734FF42962D4F8B001CB81B2F556
:1022F000A47F38BF4FF4A4724A81002800F03183D4
:1023000094F852319B0700F12C8394F8AB31DF072E
:1023100000F12783D4F8BC31984204BF0368C4F8A5
:10232000BC31D4F8B431002B00F07284D4F8B83149
:102330001A680A601960C4F8B8110B68002B7FF4A2
:1023400004AFC4F8C01100E7964A9749974840F691
:102350002E631AF05BF8404080F311884FF00300C1
:1023600002DFDBF8000094F8EC20FFF7DBB88D4AC1
:102370008D498E4840F65A631AF048F8404080F381
:1023800011884FF0030002DF3068FFF7F9B8D4F886
:10239000B431002B7FF4C9AC0260C4E96C00C4F80E
:1023A000B801CAE404F17F073B462A4604F1EE0176
:1023B00004F25D1016F02AFD3946102204F1A00047
:1023C0001CF092F8082204F1980104F1B9001CF005
:1023D0008BF894F8970094F8B82094F87E3084F83D
:1023E0008F5043F0080365F3000042F0010284F8C7
:1023F000970084F87E3084F8905084F8915084F8E7
:10240000925084F8935084F8945084F8955084F84E
:102410009650C4F8B0504146C4F8B45084F8B8207F
:10242000204611F09DF8D4F8B031002B37D094F845
:102430005221950733D494F8AB21D0072FD4D4F888
:10244000BC21934204BF1A68C4F8BC21D4F8B4215B
:10245000002A7FF4B3AB1A6832601E603368C4E9A7
:102460006D66FFF7B3BB4FF4A473194640E4D4F88C
:10247000B421002A7FF407A92B60C4E96C55C4F885
:10248000B851FFF708B9D4F8B421002A7FF44FAE51
:10249000C8F80030C4E96C88C4F8B88152E6D4F8B2
:1024A000B421002A7FF48AAB3360C4E96C66C4F8B7
:1024B000B861FFF78BBB04F17F073B462A4604F166
:1024C000EE0104F25D1016F0A1FC3946102204F171
:1024D000A0001CF009F8082204F1980104F1B900E9
:1024E0001CF002F894F8972094F8B81094F87E3015
:1024F00084F88F5042F0010265F3000143F00803B5
:10250000012084F8972084F8B81084F87E3084F88D
:10251000905084F8915084F8925084F8935084F845
:10252000945084F8955084F89650C4F8B050C4F88C
:10253000B45032797071D4F8B03142F00302052101
:102540003271F171002B7FF423ABD4F8B421002A4F
:102550007FF434AB3360C4E96C66C4F8B861FFF74C
:1025600034BB104A1049114840F6FE4319F04EFFA3
:10257000404080F311884FF0030002DF3868B4F860
:102580005EC0B4F86210FFF74EBBB4F8A421002A75
:1025900040F09F8184F89931A4F8CC20FFF73ABB32
:1025A0005C1400208021020040230200E01C020095
:1025B00094F8A83194F8A91199423EF434AD94F8F6
:1025C000AA1101F00300032800F0A78200287EF47E
:1025D0002AADD7480CF028FA014600283FF447A955
:1025E00094F8AA3194F8AC2194F8AB71012060F30F
:1025F0000103C3F3820060F30202C3F3421060F3ED
:102600000612C7F34007087984F8AA3167F3C302BA
:1026100084F8AC21C3F3820C40F00300C3F34213EF
:10262000032716220871CA7181F808C04B724F71D6
:102630000022204610F08AFD87E500F10E0A5B10AB
:102640004FEACA0A2AFA03FA1FFA8AFABAF5A47FED
:1026500038BF4FF4A47A4FF4A471CA4528BFCA46C4
:1026600021FA03F3FEF744BF03F10E054010ED001D
:10267000C540ADB2B5F5A47F38BF4FF4A4754FF493
:10268000A473BD4228BF3D4623FA00F07CE5C4F8A0
:10269000C061FFF79EBA98457EF459AF03238BF8CB
:1026A000043059460FF05CFED4F80051002D00F0C4
:1026B00025822868002800F021824368C4F8003190
:1026C00003232B7129460FF04BFE0FF053FEFEF74C
:1026D000AABC238E1D44AB1DA4F8EE300FF06EFE95
:1026E0003B68D4F800215A60C4F800710FF066FE10
:1026F0000368D4F800215A6094F8EC30B4F8EE1076
:10270000C4F80001C3F382085B09FFF7F1B940F692
:102710001D33884A8849894819F078FE404080F383
:1027200011884FF0030002DF94F8E80094F8E920E4
:10273000FEF774BC7E480CF077F900283FF497A8A8
:1027400094F8212194F82231013A84F82121027968
:1027500043F00103062184F8223142F00302417163
:10276000D4F8B03102710A216FF00E020C27017209
:10277000427205214FF0FF32C7718172C27202733B
:10278000002B00F0BF8094F85221910700F1BA802D
:1027900094F8AB21D20700F1B580D4F8BC21934264
:1027A00004BF1A68C4F8BC21D4F8B421002A00F090
:1027B0000382D4F8B8311A6802601860C4F8B8010E
:1027C0000368002B7FF4C1ACC4F8C001BDE44146EE
:1027D000204610F0C5FED4F8B03183B394F85221EE
:1027E00090072CD494F8AB21D10728D4D4F8BC217D
:1027F000934204BF1A68C4F8BC21D4F8B421002A5B
:1028000000F0CD81D4F8B8311A6832601E60C4F887
:10281000B8613368002B00F0888094F8523123F0BF
:10282000030384F85231FFF7D4B90D233572F371E5
:102830000227FFF7A4B9C4F8C001FFF781BAD4F8A2
:10284000B421002ADED13360C4E96C66C4F8B861F3
:10285000DFE70FF0B3FD0E23A28D87F820803B71D8
:1028600094F864303868FA80C3F3020387F82130A3
:1028700094F86530C3F3020387F8223039460FF02D
:102880006FFD0FF077FD94F8EC30B4F8EE10C3F361
:1028900082085B09FFF72CB994F8723103F0070343
:1028A000052B00F2E18101A252F823F0A11F0000E4
:1028B000F31E0000991E00002710000027100000E2
:1028C00027100000C4F8C051FEF7E8BEC4F8C0816C
:1028D0003BE494F89A01B4F8A671A4F89E21002371
:1028E00063F3020084F89A01A4F8A431A4F8A27159
:1028F000FFF790B91A68026018600368C4E96D00B8
:10290000FEF75DBFD4F8B421002A7FF452AF036014
:10291000C4E96C00C4F8B80152E71A6832601E605E
:102920003368C4E96D66FFF746B8C4F8C06174E760
:102930005C14002080210200841C0200E01C0200C4
:1029400003682B6005602868C4E96D55FFF7A1B8DE
:102950000323337131460FF003FD0FF00BFDFEF73B
:1029600062BBD4F8B431002B7FF4E0AC0860C4E95A
:102970006C11C4F8B811E0E41368036010600268D9
:10298000C4E96D00FFF7D9B9B94ABA49BA4840F667
:10299000FE4319F03BFD404080F311884FF00300E7
:1029A00002DF386835E41A682A601D602B68C4E9C4
:1029B0006D55FEF770BEB4F8A421002A3ED184F80C
:1029C0009971A4F8CC201BE41A6832601E60C4E937
:1029D0006D66FFF7FAB84FF4A4731A4684E41A68D8
:1029E000C8F80020C3F80080D8F80030C4E96D882A
:1029F000FFF7A8BBA1480CF017F8014600283EF4E9
:102A000036AF037943F003030B71112003220F2328
:102A1000C8714A710B7294F873314B7200222046D0
:102A200010F094FB94F8703184F87131002394F81D
:102A3000E80094F8E9203B60FEF7F0BA002161F36A
:102A40000203A4F89E21B4F8A62184F89A31A4F8D0
:102A5000A411A4F8A221FFF7D3BBD2054FF4A473AD
:102A600040F1A780A4223FE484480BF0DDFF01463B
:102A700000283EF4FCAE0379182243F003030371EF
:102A80004271B4F87421B4F87631B4F878010A814F
:102A9000B4F87A214B8110238881CA81CB7194F8D4
:102AA0007C310B74B4F87E31B4F88001B4F8822123
:102AB000A1F81130B4F88431A1F81300B4F88601FC
:102AC000A1F81520B4F88821A1F81730B4F88A319C
:102AD000A1F81D30A1F81900A1F81B20204642469C
:102AE00010F034FB94F8703194F8E80094F8E92081
:102AF000C7F8008084F87131FEF790BA5C4A5D49EE
:102B00005D4840F63D6319F081FC404080F3118838
:102B10004FF0030002DF2868CFE5080784F8A931E9
:102B2000C1F3820356D594F8AA31022161F38403DC
:102B300084F8AA3194F8AA315F064FEA531141D5BF
:102B4000022161F3471384F8AA3194F8AA1194F88A
:102B500064C094F8650094F8AB31C1F382070CF0BF
:102B6000070C00F00700C3F38003BC4508BF002733
:102B70005B00B0EB511F43F001034FEA511108BF56
:102B8000002143EA4113023A43EA8703062184F80D
:102B9000E92084F8EC3084F8EA10FEF76DBA1A6880
:102BA00032601E60C4E96D6633E6B4F87631FFF733
:102BB000C4B91A46FFF798BB1A6802601860C4E9E6
:102BC0006D00FDE5C8070FD5012161F3471384F8B7
:102BD000AA31BAE7D90710D594F8AA31012161F3D7
:102BE000840384F8AA31A5E711F0040118BF042179
:102BF00061F3471384F8AA31A7E713F004030ED05A
:102C000094F8AA31042161F3840384F8AA3191E78E
:102C100003680B600160C4E96D11FFF78EBB94F887
:102C2000AA1163F3840184F8AA1183E7104A1449B6
:102C3000114840F6265319F0E9FB404080F3118813
:102C40004FF0030002DFFEF717BA094A0C490A48A1
:102C500040F6265319F0DAFB404080F311884FF01C
:102C6000030002DFFEF703BE40F62A4351E500BF32
:102C70008021020040230200E01C02005C140020BE
:102C8000841C0200000000002DE9F04F1D4617686B
:102C900053F80C6B97B0904600220C468446BA60FD
:102CA000184632313B68CDF834C0032205F10809DB
:102CB0000B9305F11C071BF017FC04F12E010422F5
:102CC00048461BF011FC0522384604F13E011BF07A
:102CD0000BFC384605210CF075F894F8432095F864
:102CE000217096F8DC1060F305071346C2F3040266
:102CF00085F8217085F82220278F6F8294F83A207A
:102D000094F83B005B0942EA0022AA8263F3840143
:102D1000E38E86F8DC10ADF8383015F099FB834669
:102D200096F8DC00C0F3820015F094FB40F2E24A12
:102D30000AFB07F7584407FB00F0DFF824C394F8B8
:102D40003510AA8ABC4B00F5742000F23F20ACFB82
:102D500000C04FEA570C800CACF1960CC5E90A0C88
:102D60000AFB01F1E963A18FADF83E1042F2107C3D
:102D70000CFB0171B1483B4402F1060C0139B3FB75
:102D8000F7F3B1FBF7F1A6F8C61099B261453844E4
:102D9000A6F8D210B0FBF7F0A6F8CA0002DD891A37
:102DA000063989B2A6F8CE100422494606F1E000A1
:102DB0001BF09AFB062204F1280114A894F820B015
:102DC00098F815901BF090FB94F8203004F1220A3B
:102DD000C3F380135146062212A88DF844301BF02D
:102DE00083FB94F820C0CBF3C01B4FF48072CCF36C
:102DF000401384F82FB0228414A9062204F1300075
:102E00008DF840300C931BF06FFBB9F1FF0F04F10C
:102E1000290304F1230B00F0E8805A465146484646
:102E2000119313F037FC94F82220119B023284F89E
:102E3000222012A9184606221BF056FB96F8DC3019
:102E4000698AAA8A2287C3F3820384F83C30BDF8DA
:102E50003E306387E186304610F0C4FC214628826C
:102E6000E080D8F804400D980FF07AFA2B8AE380BE
:102E70000D2323710C9B2068002B00F0B18095F886
:102E800009E02B7A95F80BC0A97A95F8212041EA40
:102E90000C2143EA0E234B4042F0400201216B8497
:102EA00085F8212084F8201021460FF059FA0FF000
:102EB00061FAD8F810A0624A00240AF25240312385
:102EC000A0FB02013360C6E9014459A3D3E9002302
:102ED000FDF716F9D8F80C30AD6AA3F5AE7320F003
:102EE0007F40A3EB0A0ABDF83830F0602246022189
:102EF000012040F2E24909FB03997F1B0BF038FEE9
:102F00000B9D284610F076F8821C4E4B0095D2B2ED
:102F1000204601210CF05AFE0128D1447CD00B9BA5
:102F200093F82830DB076FD4304610F05BFCDFF8F5
:102F300010B1A7FB0B453EA3D3E900230746294662
:102F40002046FDF7DDF8404A069620F07F4AAAFBAE
:102F50000223072101FB0A3340F21D11D8F808C0F3
:102F600008913A4907913A490591A01A65EB030186
:102F7000F368049300244FF47A720023ACF1310516
:102F80000394FDF7BDF82AA3D3E900230646A9FB65
:102F90000B01CDE901A6FDF7B3F8033720F07F4020
:102FA000FFB22B4600903A46204601210CF068FD06
:102FB00030F002030CD0274A274928484FF48F737A
:102FC00019F024FA404080F311884FF0030002DF2B
:102FD0000122104602210BF0CBFD17B0BDE8F08FA7
:102FE0009DF8403084F820305EE718460622002124
:102FF0001BF0A5FA9DF8443084F8223012A95846F7
:1030000006221BF071FA19E70023012200931846EB
:1030100011460CF0DBFD87E70FF068FA0B9B83424B
:103020003FF47DAF13F054F979E700BFAFF30080B0
:103030008D49FD1A070000007FC3C901FF596202D4
:1030400000CA9A3BFD6201008D49FD1AA162010090
:1030500019630100F423020060220200E01C020058
:1030600083DE1B43000000002DE9F041D0E90CC7CE
:10307000D0F82C800CEB07043034A0450E461546E2
:1030800018D81B4F18A3D3E90023ACFB0701FDF7A9
:1030900037F8A4EB080420F07F40306012A3D3E996
:1030A0000023A4FB0701FDF72BF820F07F402860E8
:1030B000BDE8F0810E4C0CA3D3E90023A8FB04016A
:1030C000FDF71EF820F07F4307F130003360A0FBCE
:1030D000040105A3D3E90023FDF712F820F07F4097
:1030E0002860BDE8F08100BF8D49FD1A070000008F
:1030F00000CA9A3B000000002DE9F84F04461DF07D
:10310000E2F9257B064615B10CF0A2FD05460FF24B
:103110006809D9E90089DFF868B04FF0000A6068F3
:1031200017F018FCA3689B1BA360636833446360BB
:10313000237B0AF1010A4BB9A368002BEFD1A068E9
:10314000003818BF01204042BDE8F88F0CF080FD28
:1031500029460CF07FFDB0FBFAF707446069424650
:103160004B46A0FB0B01FCF7CBFF20F07F408742D2
:10317000E2D9E4E7AFF300808D49FD1A07000000B3
:1031800000CA9A3B000000002DE9F04F8FB0D0F844
:103190000490DFF8D0B00DF1370106460DF136008E
:1031A0000FF054F99DF837309DF836A00A930CF0D3
:1031B0004FFDD9F81040A4FB0B4525A3D3E900230C
:1031C0000027804629462046FCF79AFFCDE907777D
:1031D000214B059306960B90D9F814001CA3D3E954
:1031E0000023A0FB0B01FCF78BFF0B9B23F07F4917
:1031F0001A4B20F07F40A9FB03BC072303FB09CC3B
:10320000CDE90370B4EB0B0065EB0C014FF47A725F
:103210000023FCF775FF4346CDE901900A9A009719
:10322000032150460CF02CFC30F0020309D10C486D
:1032300045F6B31118F0E2FA30B9B0680FB0BDE846
:10324000F08F6FF04700F9E76FF03B00F6E700BF43
:103250008D49FD1A0700000021A001008D49FD1ACB
:10326000C81A002000CA9A3B2DE9F047057B0446A6
:1032700015B10CF0EDFC05460FF28009D9E9008983
:10328000DFF880A00126A368032B07D81A4AD2F8DA
:103290000034DB07FBD50020BDE8F08723686068B9
:1032A000196817F077FB636804336360236804339D
:1032B0002360A368043BA360237B0136002BE2D08C
:1032C0000CF0C6FC29460CF0C5FCB0FBF6F7074431
:1032D000606942464B46A0FB0A01FCF711FF20F053
:1032E0007F408742CFD9044AD2F80034D907FBD5B2
:1032F0004FF0FF30D0E700BF00E001408D49FD1ADC
:103300000700000000CA9A3B8B1E59425941014BED
:1033100019707047EB1C002008B50649064B07489A
:10332000002A08BF194619F071F8054B00221A70DF
:1033300008BD00BFBC2B0200C12B0200C92B02003C
:10334000EA1C0020014819F061B800BFD82B020028
:1033500011B1034819F05AB8024819F057B800BF24
:10336000F62B0200162C020070B503788AB00446D2
:103370000E4607AD032B20D8DFE803F002191B1D12
:10338000114928461BF053F863780493A3780393FC
:10339000E378029323790193637900930B4AA3792D
:1033A00005951E21304619F03EF80AB070BD084957
:1033B000E7E70849E5E70849E3E7084A0A2128461C
:1033C00019F031F8E0E700BF212C0200432C020085
:1033D000282C02002F2C0200392C0200334A020054
:1033E00010B588B00C461BF003FC6946FFF7BCFF24
:1033F00003482246694619F009F808B010BD00BF1D
:10340000662C020000B589B01BF0F2FB6946FFF79D
:10341000ABFF0348694618F0F9FF09B05DF804FBFB
:103420007C2C02002DE9FF41002005F055FC0446EC
:1034300030B101462E4818F0E9FF04B0BDE8F08134
:103440002C4818F0E3FF00F087F81AF06BFD2A4BC8
:103450002A4918689B880290ADF80C3000942346E6
:10346000032202A81BF009FB014600283CD0244897
:1034700018F0CCFF2348244C244D06F0F5FB2448DB
:1034800006F0EAFF26464FF47A7018F063F900F070
:1034900081F823780133DBB2A02B08BF5A232370B5
:1034A000307801F08BFA01F02BFA013810F0FF00B0
:1034B00008BF642001F02AFA2B78002BE3D0154FC7
:1034C00038780028DFD11449144B4B60144B4FF06F
:1034D0000108C1E90237A1F8108009F0FDF80028C1
:1034E000D1D187F80080CEE70E4818F08FFFC1E7F2
:1034F000932C0200B32C0200EA12020038130200DF
:10350000CA2C0200485A0020E55F0020EB1C002076
:10351000285A0020EA1C002018000020781302001E
:1035200019330000F02C020038B50C46BDF810002D
:10353000E5681C46C3180A2B114608DC22462844BD
:103540001AF0D2FF034B01221A70204638BD6FF0EB
:103550000604FAE7F61C002013B50D4C40F2DF73A9
:1035600002220DF106012046ADF806301AF0BCFF2C
:103570000523A3701E23E3700C22A3710123227183
:10358000E3712D22002362712372637202B010BDB9
:10359000EC1C002010B50C4B1A7886B08AB10024C0
:1035A0002146182268461C701AF0C9FF074B019388
:1035B000074B029369460A232046ADF80C3009F008
:1035C0000FF806B010BD00BFF61C00206814020002
:1035D000EC1C002030B50A4C0A44914200D130BDA9
:1035E00011F8013B58400309E35C83EA0013DDB2A4
:1035F000C3F30313E05C80EA0510C0B2EDE700BF3F
:10360000452D02000B6801330B60014B1B68184706
:10361000845A00202DE9F04F85B09B460E9CDFF8C0
:103620009090012CB8BF0124012B0CBF3023202324
:10363000154606468A46029301274FF00A080022E3
:10364000B5FBF9F301930AB9A9451FD8019B51466F
:1036500003F13000B04701370122019B08F1FF3828
:10366000B8F1010F09FB13554FF00A03B9FBF3F949
:10367000E6D1514605F13000B047BBF1030F02D14E
:10368000E41B002C0EDC05B0BDE8F08F4445E4DB04
:10369000BBF1020FE1D8029803925146B0470137BF
:1036A000039ADAE751462020B047013CE9E700BF22
:1036B00000CA9A3B014B1860704700BF845A002033
:1036C0002DE9F04F8DB01C460027531E05468B4652
:1036D00003934FF0FF39B846002605E06EB9252860
:1036E00000F071815946A847039B13F8010F03931B
:1036F0000028F3D10DB0BDE8F08F7A280AD86228EF
:1037000010D8302854D045D8252800F05A812D28CB
:1037100000F05F8159462520A847039B1878594639
:10372000A847D9E7A0F16303172BF3D801A252F8F9
:1037300023F000BFBB390000FF3700001537000041
:103740001537000015370000E1370000FF37000093
:103750001537000015370000E1370000153700006D
:103760001537000015370000A1380000153700009C
:10377000153700008B390000153700006F38000046
:1037800015370000153700009D3700001537000081
:10379000E137000039281AD95828BBD1039B1B7880
:1037A000702B40F0888054F8043B0693002290E090
:1037B000B9F1000F0EDAB8F1000F00F00D81A0F1A1
:1037C0003009B8F1000F08BF4FF002088CE7B9F1DB
:1037D000000FF4DB0A2303FB0909A9F13009F0E724
:1037E000682803D1682F06D148277DE76C2802D1CD
:1037F0006C2F00F0F480002F8CD1074674E77A2FED
:1038000002D154F8046B21E06C2FFAD04C2FF8D180
:10381000073424F00704F4E80223CDE90423049BD1
:1038200013F10041059B089143F100010991DDE985
:10383000082300214FF0FF30994208BF904204D284
:103840005946284618F0C1FD46E7049E002E05DAC9
:1038500059462D20A847764209F1FF39CDF800904E
:103860004346324659462846FFF7D4FE34E77A2FBE
:1038700002D154F8042B0FE06C2FFAD04C2FF8D162
:10388000073424F00704F4E8022300214FF0FF304E
:10389000994208BF9042D3D3CDF800904346E1E768
:1038A00059463020A84759467820A8474FF00809C4
:1038B0004FF0010872E76C2F3FF475AF4C2F7FF487
:1038C00072AFE31D23F007031C4654F8082B069241
:1038D0005A6800211023049107914FF0400AAAF181
:1038E000040A0699CAF1200EAAF1200C21FA0AF066
:1038F00002FA0EFE40EA0E0022FA0CFC40EA0C002E
:1039000010F00F0007D1079911B9BAF1000F25D1B6
:103910004FF0300C05E009288CBF4FF0570C4FF0EA
:10392000300C6044594640B20A920793A847049B62
:103930000A9A01330493079BBAF1000F23D1B8F11F
:10394000030F7FF4C9AE049BC3EB4906002E7FF73B
:10395000C3AE59462020A847013EF7E7591E9945B6
:103960000A9107DBB8F1010F06D10B9259463020BE
:10397000A8470B9A0A9BB2E7B8F1020FFAD10B9253
:1039800059462020F4E70796A9E754F8046BB2469D
:1039900053461AF8010B68B9B8F1030F21D19E1BE9
:1039A000A9EB0606002E7FF797AE59462020A847C0
:1039B000013EF7E75946A847EAE754F8040B594691
:1039C000AEE65946ACE63746B0464FF0FF39012621
:1039D0008AE64FF0030887E64FF0010884E64C279B
:1039E00082E6064680E600BF07B50B460021024688
:1039F0000191034801A9FFF763FE03B05DF804FBE2
:103A00000536000030B585B0CDE90101044600253A
:103A10000548039501A9FFF753FEDDE902309842FE
:103A2000B8BF255405B030BDE7C30100014B18688D
:103A3000704700BF885A0020F0B5082289B00C46B4
:103A4000064618F0E9FECB6A03930B6B04934B6BAD
:103A500005938B6B0693CB6B0793002708236A466D
:103A600069466846CDE90177009718F0D7FD08232D
:103A700005466A463146304618F0D0FD236B039365
:103A8000636B0493A36B0593E36B0544CDE90637A1
:103A90006A4608236946684618F0C0FD3146054469
:103AA00008236A46304618F0B9FD236A0093636A1A
:103AB0000193A36A0293A36B0693E36B07930544F8
:103AC00008236A463046CDE90477039718F0A6FD2F
:103AD000636A0093A36AA26B0193E36A0293049260
:103AE000636BE26B0393CDE90523236A07930544D7
:103AF00008236A46304618F091FDE36A0093236B71
:103B00000193636B0293236A0693A36A07930544A8
:103B100008236A463046CDE90477039718F0B2FED1
:103B2000236B0093636B0193A36B0293E36B03938B
:103B3000636A0693E36A07932D1A08236A463046A0
:103B4000CDE9047718F09EFE636B0093A36B01939D
:103B5000E36B0293236A0393636A0493A36ACDE938
:103B60000537236B07932D1A08236A46304618F051
:103B700089FEA36B0093E36BCDE90137636A03937E
:103B8000A36A0493E36ACDE90537636B07932D1AA3
:103B900008236A46304618F075FE2D1A10D40D4CD5
:103BA00035B908223146204618F042FE01280FD0D0
:103BB000082322463146304618F064FE2D1AEFE7FE
:103BC000044A08233146304618F028FD2D18F8D451
:103BD00009B0F0BDA8140200F0B5264E07460C4609
:103BE0000FCE8DB001AD0FC50FCE0FC596E8070003
:103BF00085E807003846002F38D0002C38D0381F11
:103C00002146024610344B780D781B0443EA0563C5
:103C1000CD782B438D78043143EA05238C4242F85A
:103C2000043FF0D1144C04218A07036916D1C3F371
:103C30000742A55C1A0EA25C42EA0562C3F307259F
:103C4000DBB2655DE35C42EA054242EA03220CAD69
:103C500021F003032B4453F82C3C534050F8042F1D
:103C6000013153402C290361DED101200DB0F0BD9C
:103C70002046FBE780120200552D02002DE9F0439B
:103C8000154689B00646002858D0002959D0002A88
:103C900059D010230A466846194618F0FBFB2946FE
:103CA00068462A4C19F000FB05F11007A146A03523
:103CB000E8466A4610231178013B615C02F8011B5B
:103CC000F9D1684619F035FB694604A819F06AFB7A
:103CD00001A905A819F066FB02A906A819F062FB64
:103CE00003A907A819F05EFB102319460DEB030288
:103CF000684618F0CFFB39466846103719F0D4FAF9
:103D0000AF42D5D1102498F80030013C19F80330A7
:103D100008F8013BF7D1684619F00BFB29466846C5
:103D200019F0C2FA102319466A46304618F0B2FB61
:103D300068461022214618F0BAFB012009B0BDE800
:103D4000F0830846FAE71046F8E700BF552D020059
:103D500030B50E490E4887B000221CF0FEFE0D4D16
:103D60000D4900240E23CDE90243CDE90444CDE9F9
:103D700000440A4B4FF44072284617F091FD084961
:103D800028461CF001FE204607B030BDA53D0000CE
:103D9000440000208C000020E8230020B1410000F6
:103DA000552E0200014817F003BD00BF84610020BA
:103DB00008B500F05DFA094819F033FC0423282205
:103DC000074908481CF092FB074B084A1A604FF459
:103DD0000040BDE8084000F091BC00BF3C0000205E
:103DE000504D0020700000208C5A002061D6010048
:103DF000F8B50F4BBFF35B8F002553E8007F43E816
:103E00000052002AF9D1BFF35B8F0A4C0A4E361BD1
:103E10003611B54200DBF8BD63685B792BB12368CE
:103E2000DB6813B139462046984701351034F0E776
:103E3000340000205C1202007C120200064BBFF32B
:103E40005B8F53E8002F013243E800210029F8D1AD
:103E5000BFF35B8F704700BF34000020044A054B5E
:103E60009B1AB1EBD30F34BF52F8310000207047DA
:103E7000141102005C120200094B4268C31A1B11A4
:103E8000013310B513714368064C196001225A7151
:103E9000227812B9044817F08BFC0123237010BD5F
:103EA0005C120200F71C00208461002070B5114BE9
:103EB000BFF35B8F53E8005F6A1C43E800210029D1
:103EC000F8D1BFF35B8F2DB90B4C0C4E361B36115E
:103ED000B54200DB70BD237B43B123685B6903B14E
:103EE0009847042200212046FFF7C6FF0135103411
:103EF000EEE700BF380000205C1202007C120200D6
:103F0000164B984237B5044602D3154B98421FD33F
:103F10001448002201A916F013FF0546D8B9012262
:103F2000019BBFF35B8F53E8001F43E8002000288C
:103F3000F9D1BFF35B8F019821461F2204301AF09C
:103F400080FA019C7E2384F8233084F824500434C2
:103F5000204603B030BD044CFAE700BFFC0D020060
:103F6000A44E0200700000205D2E020048B1054BF7
:103F7000984205D3A03398422CBF002001207047FF
:103F800000207047504D00202DE9F04F4C4B1B781E
:103F900085B0044603B960B34FF02003EFF31186F8
:103FA00083F31188BFF36F8F464819F04AFB05462B
:103FB00086F31188BFF36F8F78B1BFF35B8F424BED
:103FC00053E8002F013A43E800210029F8D1BFF35C
:103FD0005B8F94B1284619F04BFC24B93B4B1B680E
:103FE0000BB1FFF705FF374819F029FB041E18BF76
:103FF0000124204605B0BDE8F08F354B1B78CBB9C6
:104000002B7ADB0716D419F046FC8046284619F0B7
:104010000DFC0146404619F027FB2E4F2E4BDFF8D2
:10402000D4B0DB1BDB0803932C4BDB1B06464FEAAB
:10403000D30A36B92A4E2B4FBF1B3F114FF0000851
:104040003AE0B6FA86F1C1F11F094946284619F04F
:10405000F0FB254B9842014602D3244B98421AD3D9
:104060000846FFF783FF0246A8B9214B994212D0B8
:104070006B8903989909B0EB931F4FEA8A1343F0B9
:10408000010388BF57F83120ADF800304946434658
:10409000584619F043FB012101FA09F126EA01060D
:1040A000C7E773685B7923B1336829461B683046DC
:1040B000984708F101081036B845F2DB8AE700BFDF
:1040C000F71C00203C0000203000002034000020BD
:1040D000F81C0020141102005C12020024120200DD
:1040E0005C1202007C120200FC0D0200A44E0200D1
:1040F0005D2E0200772E0200264B70B51B684181B1
:1041000004469847244DE060BFF35B8F55E8003FBD
:10411000013345E80032002AF8D1BFF35B8F4FF03E
:104120002003EFF3118683F31188BFF36F8F1B48D1
:10413000214619F07AFA86F31188BFF36F8F184B76
:104140001A787AB14FF02003EFF3118483F31188CA
:10415000BFF36F8F0020FFF717FF84F31188BFF3C1
:104160006F8F70BD0F492B6809680029F9D0012BAA
:1041700006D10D48BDE870404FF47A7117F0B0BD1C
:104180000A2BEED108481CF0F4FC0848BDE870404A
:1041900017F00EBB8C5A0020300000203C0000209D
:1041A000F81C0020F800002044000020846100205A
:1041B00008B5FFF77BFE17F0F5FA0B4B186030B12E
:1041C0000A4B1B68092B02DD094817F0F1FA084C6D
:1041D0000020FFF7D9FE0028FAD14FF0FF3120462A
:1041E00017F00CFBF4E700BFF800002030000020BF
:1041F00084610020F8B50E4F3D7875B90D4C0E4E18
:10420000FFF754FE361B3611B54207DB0020FFF7DF
:10421000BBFE0028FAD101233B70F8BD63685B79CF
:104220001BB1236820461B69984701351034EBE722
:10423000F81C00205C1202007C12020007B5043852
:104240000190BFF35B8F50E8003F5A1E40E8002109
:104250000029F8D1BFF35B8F012B03D1034801A9DB
:1042600016F09AFD03B05DF804FB00BF700000205B
:104270002023024902481A461CF038B9F04D0020AC
:10428000FC00002037B50023094D01930120FFF702
:104290007BFE0446FFF7D2FD002201A9284616F056
:1042A0004FFD08B1002CF1D1019803B030BD00BF23
:1042B000FC00002007B500220648019201A916F073
:1042C0003FFD10B1FFF7DEFF0190019803B05DF8EC
:1042D00004FB00BFFC000020F0B5037A467A85B0ED
:1042E000D90701904FEA16160ED5019B1A7A92074C
:1042F00004D55B69184C0393039B33BB164801A993
:1043000016F04AFD05B0F0BD002EEED00024254683
:1043100017E0294619F08DFA0746FFF727FE78B116
:104320003CB9019B3146186919F09EF904460028F2
:10433000DBD024FA05F3DB0702D53846FFF77EFF12
:104340000135AE420198E4D8CFE71D6803A92046A5
:1043500016F022FD0395CFE7FC0000200EB403B554
:1043600003AB014653F8042B04480193FFF7A8F967
:10437000002002B05DF804EB03B070473FDC0100A1
:104380002DE9F04F85B011F0020490469DF8387089
:1043900006461A4601F0010901F0080507D011F0A0
:1043A000440F37D13249FFF7D9FF01460C46B9F126
:1043B000000F0AD02F4B304953F827202F4B30469F
:1043C000002A08BF1A46FFF7C9FF3DB12C4B2D4903
:1043D00053F827203046FFF7C1FF0546B8F1000F1C
:1043E00043D0012303FA07F7274B17F0100F274F8D
:1043F00018BF1F46BDF840109DF83C00FFF72EFD8A
:10440000394602463046FFF7A9FF2844204405B04C
:10441000BDE8F08F1E4B19680029C7D01D4B4FF423
:10442000616E1B68B2FBF3F34FF47A7CB3FBF1F4DB
:10443000B4FBFEF20EFB124E01FB14340CFB04F431
:104440004FF03C0AB4FBF1FB01FB1B440CFB04F4F2
:10445000BEFBFAF3B4FBF1F1CDE901B10AFB13E1C4
:1044600000910D49FFF77AFF9FE7084FC2E700BFB1
:10447000C82E020054150200D33D0200BA2E0200DD
:1044800068150200ED2E0200C42E0200BF2E0200AD
:10449000180100201C010020D12E020038B50C4666
:1044A000E107054603D5084A0849FFF757FFE2062A
:1044B00008D4A30628464CBF05490649BDE8384044
:1044C000FFF74CBF38BD00BFBA2E0200D33D02003B
:1044D000F42E0200F32E02002DE9F0471D46089B42
:1044E0001746DA0604460E4605D499064CBF2A49FB
:1044F0002A49FFF733FFDFF8AC904FF00008A845DA
:104500002ADBDFF8A480DFF8A490DFF898A000256C
:10451000BD422FD2725D49462046FFF71FFF01358D
:10452000102D20D11E49DFF87C80DFF884902046D2
:10453000FFF714FF0025AF4228D9725DA2F12003D6
:104540005F2B28BF2E2249462046FFF707FF013583
:10455000102D14D1BDE8F08749462046FFF7FEFE36
:1045600008F10108CBE76A07D2D151462046FFF790
:10457000F5FECDE741462046FFF7F0FECFE76B079B
:10458000D9D141462046FFF7E9FED4E7414620460F
:10459000FFF7E4FEDBE700BFF42E0200F32E02007B
:1045A000002F0200FE2E0200FC2E0200F62E02005A
:1045B000022F02002DE9F0478B7A13F00708174607
:1045C0008AB00A7A05460E4620D04989C3F3C20351
:1045D0008909D243CDE900830291F36802F0010218
:1045E0003946FFF7CDFE8146347AE44314F00104E6
:1045F0000ED02946304619F0B8F9B8F1000F2BD08B
:10460000424639462846FFF749FF25E0C146EBE719
:10461000B8F1000F26D12746EB68069306AA3B4661
:10462000A968304619F08DF9069A6B681A603AB19C
:10463000AB68134413F8014CA4F10A035C425C41DB
:10464000284619F0EFFA069B1F44002BE4D11CB159
:1046500013492846FFF782FE284619F0E3FA0AB00C
:10466000BDE8F087304619F016F90E490246284693
:10467000FFF774FE4FF0100A05AA234606A930463C
:10468000CDF814A019F05DF9059A002AB8D04B4670
:10469000009706A92846FFF71FFF059B1C44EBE780
:1046A000052F0200D33D020073B5D0E900435D68D9
:1046B0000F4A42F20F738B4228BF0B466846052112
:1046C00002F010FB2B4606460A4920460B2219F041
:1046D0003FF92B4632466946204619F039F906491A
:1046E0002B461B22204619F033F902B070BD00BFE3
:1046F0005D470200432F0200272F0200084A10B531
:104700000123084C13600021A04204D801B11360BA
:10471000054B186010BD40085B000121F4E700BFA5
:104720001C01002040420F0018010020014819F030
:1047300079BA00BF941502000148FFF7B5BF00BF6A
:104740009415020008B5034816F04CF9024B586066
:1047500008BD00BF4F2F02002801002010B50846F9
:104760000C4619F056F8054821460F22FFF722FFA4
:104770002046BDE8104019F07BB800BF9415020038
:10478000014B01221A7070470A1D002008B503482A
:1047900019F048FA024B01221A7008BDBC1502003C
:1047A0000B1D00200148FFF77FBF00BFBC150200B2
:1047B00010B508460C4619F02CF8054821460F2282
:1047C000FFF7F8FE2046BDE8104019F051B800BFD1
:1047D000BC150200044B1B781BB141F288301CF061
:1047E000D1B8052016F0B6BF0B1D00202DE9F84FFB
:1047F000DFF88C90DFF88CB007460E460424CA46DA
:1048000099F8003023B94FF0FF31584616F08AFB73
:1048100032463946002001F07DF89AF80030804693
:1048200013B9584616F0F0FB144DB8F1000F18D02C
:1048300001232B709AF8003033B93046BDE8F88F69
:104840005CB92C704FF0FF34002001F0AFF8002865
:10485000F3D02B78002BF3D1EFE7013CFFF7BAFF41
:10486000F2E72B7813B1013C04D12C702B78002B8C
:10487000C6D1E2E7FFF7AEFFF8E700BF0A1D002050
:104880000B1D00200C6200201FB507240294044C6D
:104890000194BDF8184000941AF0ABFF04B010BDAD
:1048A00069600020074B084A0848D21AD208084B12
:1048B0009201012914BF0146194642F0030205483E
:1048C00018F0FFBE1411020014110200A12F020003
:1048D000992F0200AA2F020010B5084C86B0247848
:1048E0008DF81740012402940DF117040194BDF8CE
:1048F000204000941AF07DFF06B010BD70600020CB
:10490000014B1878704700BF7060002000B589B077
:1049100064288DF8070019D80E4B18221870002152
:1049200002A819F00CFE0C4B03930DF1070304933E
:1049300002A901230020ADF8143007F051FE10F158
:10494000390F08BF002009B05DF804FB6FF01500B7
:10495000F9E700BF706000206C160200024B0122D4
:104960001A700020704700BF0E1D00201FB50124E3
:104970000294044C0194BDF8184000941AF039FFD9
:1049800004B010BD0E1D0020074B084A0848D21A7B
:10499000D208084B9201012914BF0146194642F082
:1049A0000302054818F08DBE141102001C1202000B
:1049B000A12F0200992F0200C32F020010B50D4C49
:1049C00086B006236070182200216846237019F013
:1049D000B6FD094B6946CDE9013400200223ADF84C
:1049E0000C3007F0FDFD10F1390F08BF002006B0B4
:1049F00010BD00BF0C1D0020BC1602002DE9F043C5
:104A0000082385B00D460968047C074619F061F952
:104A100068B90821204619F0A8F92968BB89014422
:104A20008AB21B1A9A420646296003D0002005B0BC
:104A3000BDE8F0830B0C03BFFB8903F1FF3301EBEF
:104A40000341A1F58031296008236A46384619F0F0
:104A500040F90028EBD16A46034612F8011BFF29F2
:104A600015D10133082BF8D17B682B60DFE7BB89B8
:104A7000BDF802109B1B99420FD2B1FBF6F306FB67
:104A8000131353B9240C24040C442C60CFE768465C
:104A900019F056F92C680028E9D0104BA41B2C60A3
:104AA00004EA03089946A045C0D208230DEB03028F
:104AB0002146384619F00DF90028B8D102A819F09E
:104AC0003FF940B9BDF80A30BDF80C202C6008EA67
:104AD000090813449844A41BE5E700BF0000FFFF4A
:104AE0002DE9F04F054695B0007C082119F03DF9FD
:104AF0006B681B0C1B04064603A9E889039319F095
:104B00003EF9039BA98906AF1944891B08233A463D
:104B10002846049119F0DDF8041E71DB0023FA5CCD
:104B2000FF2A71D10133082BF9D10399284619F0D6
:104B300055F9044664E057453E4628BF564633467D
:104B40000CAA4146284619F0C4F80446002857D15B
:104B500036B1A96833460CAA284619F065F904460F
:104B6000287C314619F001F9AA680244AA60002C99
:104B700046D1AAEB060AB04438E0019B5B45D4D08D
:104B800008AA04A92846DDF810B0FFF737FF04464D
:104B9000002835D16B6805930AAA05A92846059F08
:104BA000FFF72CFF044658BBBDF82820BDF8203085
:104BB0009A42F1D10AA819F0C3F80028ECD15F4558
:104BC000DBD1BDF82430002BD7D0BDF822300BEA62
:104BD0000908984408A8AB68ADF8223019F0BCF871
:104BE0002F7CBDF824A07F4207F02007BAF1000F08
:104BF000A1D108A9284619F05BF904460028BCD0C9
:104C0000204615B0BDE8F08F049BBDF81A109A1B22
:104C10000192034A13400B4404939146B0E700BF4E
:104C20000000FFFF2DE9F043044687B00D4600F178
:104C3000140630461BF08EFC284615F0D3FEA06209
:104C400078B9914B91499248C91AC908890141F034
:104C5000010118F029FD6FF00505284607B0BDE8F1
:104C6000F08343681B7D2374202B0CD98749864B26
:104C70008848C91AC908890141F0010118F014FDDA
:104C80006FF01505E9E7A06A216803AA1BF0DDFBB8
:104C900040B17E497C4B8048C91AC908890141F05E
:104CA0000101EBE7A3892BB1049AB3FBF2F502FBF8
:104CB000153545B17549744B7848C91AC908890139
:104CC00041F00101DAE7E389012B08D86F496E4B07
:104CD0007348C91AC908890141F00101CEE700955E
:104CE0004FF0FF31304616F01DF9207C082119F0F5
:104CF0003CF8A9460746E3891FFA85F8434505D8DD
:104D0000E3894B451ED16FF02005A6E7A1892B044E
:104D1000C91B13FA81F108222046009119F03AF8D4
:104D200070B1E089694619F02AF809F10109009982
:104D3000082220461FFA89F919F02CF80028DFD044
:104D40000135D8E798450AD100990822C91B2046A9
:104D500019F020F818B9E089694619F010F8009B9D
:104D6000DA1B62604F4A1340A3609046D4E90113F6
:104D700099420ED3082301AA204618F0AAFF05463F
:104D800018BB01AB13F8012BFF2A65D10135082DA3
:104D9000F8D1D4E901218A4206D9521A204618F0E6
:104DA000F9FF051E11DB3AD16368DFF8F880E0896E
:104DB00003EA08036946009318F0E1FFA28900990D
:104DC000204618F0E7FF051E2EDA304616F01CF9D3
:104DD000002D7FF442AF012363742C4E2A4BA2892D
:104DE000E1893148F61AF608B60146F00306334663
:104DF00018F07BFC61682D4833468AB2090C18F024
:104E000074FCA1682A488AB23346090C18F06DFC7C
:104E100023E7B9F1000F34D06FF01C051DE7A3683C
:104E2000227C1344A360B4E7CFD06168204618F019
:104E3000D5FF05460028C8D16368A08903EA0803A6
:104E40000344A3EB4700606000EA0800A06020462E
:104E5000FFF746FE0546B8E701A818F071FF656840
:104E600078B90098BDF80620BDF8089000EA08005F
:104E700002444946207C18F078FF1044A842A06004
:104E8000C7D0ED1B656071E7141102001412020017
:104E9000F02F02000C3002002930020041300200E5
:104EA000553002000000FFFF783002008F30020012
:104EB000A13002002DE9F04F1E46437C89B0044624
:104EC000894690467BB9674B67496848C91AC90843
:104ED000890141F0010118F0E7FB6FF00C0528464D
:104EE00009B0BDE8F08F90F810B00821584618F0CE
:104EF0003CFFA38900EB40029B1AB3428246C0F0FC
:104F0000AC801EB1B8F1000F00F0A7806368039376
:104F100004AA03A92046039FFFF770FD0546002859
:104F2000DDD1BDF810304B4505D06268039B9A4235
:104F3000EED1D6B9D3E704A818F002FF0028F4D1C7
:104F4000BDF814307EB1B3420FD1BDF81200390C58
:104F50000904014433464246204618F0C8FE0028A2
:104F600003DC0546BBE7002BB9D03146584618F0A4
:104F7000FCFE074600283DD104F1140A4FF0FF3132
:104F80005046DFF8ECB015F0CDFF0023E2899342E4
:104F900060D0D4E90121781882422ED3FF2306A8DD
:104FA000ADF81890ADF81A10ADF81C608DF81E30F1
:104FB00018F0D2FE36B1A16833464246204618F0BA
:104FC00033FF0546207C314618F0CFFEA36803442A
:104FD000A360002D44D106A9204618F069FF0546BC
:104FE00000283DD132460192504616F00DF8019A44
:104FF000154674E75744BFB2BEE7207C01930821F1
:1050000018F0B3FE4FF6FF71ADF818100021ADF89F
:105010001C101118ADF81A10A18902EA0B020A44FB
:10502000101A606006A818F097FE06A9204618F02E
:105030003FFFE089211D18F0A2FE626802EA0B0220
:10504000A2602046FFF74CFD02460028CBD1019B11
:1050500001339BE76FF01B02C5E76FF015053EE7D4
:105060002A46C0E71411020014120200DC2F0200CD
:105070000000FFFF2DE9FF471E46437CBDF830903E
:1050800004460F46904673B92B4B2C492C48C91A3D
:10509000C908890141F0010118F006FB6FF00C000E
:1050A00004B0BDE8F087007C082118F05EFEA389FB
:1050B000A3EB4003B3423BD3636801934FF0000A74
:1050C00002AA01A92046019DFFF798FC0028E7D11C
:1050D000BDF80830BB4207D102A818F031FE18B95C
:1050E0000AF1010A1FFA8AFA6268019B9A4218D0F3
:1050F000CA45E5D9BDF80C30BBB1CA4515D3BDF8DA
:105100000A102D0CB3424FEA054528BF33464246EC
:105110002944204618F0DDFD0028C1D1BDF80C005F
:10512000BEE7BDF80830BB42E4D06FF00100B7E73E
:105130006FF01500B4E700BF141102001412020052
:10514000DC2F0200094B30B51D68094B02461C6874
:1051500000239D4201DC002030BD190104EB031047
:10516000615C9142F8D00133F3E700BF9817020069
:10517000F85A0020084B1B6810B50C462BB1FFF7FE
:10518000E1FF28B12060002010BD6FF00C00FBE7AC
:105190006FF00100F8E700BFF85A002030B589B081
:1051A0000C4615460190FFF7CDFFB8B14368029356
:1051B00083682268C068CDE903350023CDE9062362
:1051C000059315F00FFC60B1074901AA1BF041F9E6
:1051D000079808B9059B236009B030BD6FF0150032
:1051E000FAE76FF01200F7E7E9DE01000F4B2DE957
:1051F000F0411C6805460E4617469CB14FF0FF3142
:105200000B4815F08FFE63683246D3F808802946B4
:105210003B462046C0470446054815F0F5FE2046AB
:10522000BDE8F0816FF00104F9E700BF50010020F4
:10523000F861002000230360044B5A6812B9C3E9E7
:105240000000704710605860704700BF48010020A0
:10525000014B1860704700BF5001002030B585B089
:1052600000230546CDE9023301900E484FF0FF318F
:1052700015F058FE0C4B1C68002C38BF00243CB1C4
:10528000636820461B6801A998472468002CF6D162
:10529000284600F0D5F80446024815F0B5FE204631
:1052A00005B030BDF8610020480100201FB5CDE9F0
:1052B000010103920C484FF0FF3115F033FE0B4B08
:1052C0001C68002C38BF00243CB1636820461B6872
:1052D00001A998472468002CF6D1034815F094FEE4
:1052E000002004B010BD00BFF8610020480100207C
:1052F000024B0022C3E90022704700BF4801002092
:10530000024B0022C3E90022FFF7F2BF5401002044
:105310002DE9F34107460E4609B100230B601E4CF0
:10532000DFF87C800025444508D31C4B1C680CB179
:10533000143CC4B9284602B0BDE8F081216801AA36
:10534000384618F0F6FD60B125B90EB1019B336007
:10535000254606E029682068002218F0EAFD0028AA
:10536000F3D11434DFE7216801AA384618F0E1FDD3
:1053700060B125B90EB1019B3360254606E029686E
:105380002068002218F0D5FD0028F3D114F1140F85
:10539000D0D06469CBE700BFB010020054010020F8
:1053A000141102002DE9F04385B00546DDF8308088
:1053B00003900C4616461F46B8F1000F18D0D8F8D7
:1053C000001081B103AA18F0B4FD60B9002007E015
:1053D000D8F80830009303983B4632462146C84728
:1053E00005B0BDE8F083D8F80490B9F1000FEFD113
:1053F00003A92846FFF78CFF0028E7D0D0F80880E3
:10540000039832463B462146C04706460028DDD079
:10541000084B094C2846E41AE408FEF771FDA40184
:1054200044F00104014623460448324618F05DF971
:10543000CCE700BF141102004C120200CC30020075
:10544000F8B51A4C1A4F06460025BC4206D3194B34
:105450001C680CB1143C9CB92846F8BD1EB9E36821
:105460004BB91434F1E720680022314618F061FD91
:105470000028F4D1F5E79847002D08BF0546F0E76E
:1054800036B9E36863B914F1140FE5D06469E0E755
:1054900020680022314618F04CFD0028F1D1F2E7D7
:1054A0009847002D08BF0546EDE700BFB010020089
:1054B000141102005401002010B5064C23783BB9AA
:1054C000FFF71EFF00F064F808B90123237010BD38
:1054D0000020FCE70F1D00202DE9F047848EDFF847
:1054E000ACA0013498B080468946A4B200F1080609
:1054F000651EADB2B5F5004F45D04A2305AA294631
:10550000304618F0EAFC04F57F543F34A4B2074655
:10551000214601230DF10B02304618F0DEFC002F6E
:10552000014603DC002803DC2C46E1E7002816DCFA
:10553000B8F83430AB4209D142466B1E22F8343FF2
:105540004FF4004102233046FFF7B4FC29463046B1
:1055500018F0BFFC2146304618F0BBFCE4E718AB5E
:105560001F44002307F84C3C5246CDF8009003AB93
:1055700005A80396ADF81040FFF714FF0028D3D01C
:1055800018B0BDE8F0870020FAE700BFA5DF0100F2
:105590007FB50123694604200193FFF7EBFD044624
:1055A000002836D102AA01A90420FFF7F7FD10F167
:1055B000130F04462DD038B10C3405D0404080F391
:1055C00011884FF0040002DF0399B1F5803F23D228
:1055D000009A002395681846084485429CB203D37C
:1055E0000133082BF8D11C460D4D5368AB6028469B
:1055F000D368EC82A982AB6318F069FD044640B918
:10560000084E6E602846FFF715FE28466E60FFF7CD
:105610001FFE204604B070BD6FF02404F9E700BF00
:105620005C010020FC5A00200A2838B5074D0446CA
:1056300004D1286843680D215B689847286843684F
:10564000E1B25B689847204638BD00BF9801002052
:1056500010B5044C204601F03FFB2046BDE8104049
:10566000FEF728B82956000008B5044815F0BAF925
:10567000034B1860FFF7ECFF002008BD4F2F02001E
:1056800098010020164B07B51A6882B14FF080428E
:10569000D2F80423D1070AD500221A601B681148EA
:1056A0000093009B8368597A09B918F03AFD0E4BB4
:1056B0001A688AB14FF08042D2F8042392070BD5C2
:1056C00000221A601B680193019B0648012103B068
:1056D0005DF804EB18F025BD03B05DF804FB00BFD6
:1056E00000010040B0600020040100400D4B00228A
:1056F000C3F840214FF02002EFF3118182F31188AB
:10570000BFF36F8F084AD3F804051368C01A20F05E
:105710007F400344136081F31188BFF36F8F16F04D
:1057200051BA00BF00100140B401002073B5184801
:1057300015F058F948B34368164D1B680121984786
:10574000002401264FF48033C5F80845C5F84065AC
:10575000C5F8043303F1804303F58A534FF4003254
:105760001C601B680193019B0B4B3146C3F88021E1
:105770001120224600F0B2F9112000F07DF9074B0C
:1057800020461E602E6002B070BD4FF0FF30FAE779
:10579000F73002000010014000E100E00810014075
:1057A000254BF0B5B0F1FF3F08BF18464FF020027F
:1057B000EFF3118582F31188BFF36F8F1F49204AE1
:1057C000D1F804451268A71A27F07F463F0219D482
:1057D000013820EAE0709842A8BF184601363044EC
:1057E000984294BF1318D3181C1B24F07F4423F055
:1057F0007F42022CC1F8402506D985F31188BFF3FA
:105800006F8FF0BD0020E9E7D1F804250D489A1A02
:1058100022F07F42541E844205D90B4B4FF40032D4
:10582000C3F80021E9E7012A02BF023323F07F43D6
:10583000C1F84035E1E700BFFEFFFF000010014066
:10584000B4010020FEFF7F0000E100E04FF02002E5
:10585000EFF3118382F31188BFF36F8F064AD2F8FA
:105860000405064A1268801A20F07F4083F31188ED
:10587000BFF36F8F704700BF00100140B4010020DC
:105880004FF02003EFF3118283F31188BFF36F8F82
:105890000649074B0868D3F8043582F31188BFF333
:1058A0006F8F1B1A23F07F4318447047B401002008
:1058B0000010014010B5114C114AA2610323C4E944
:1058C0000433104BE36122664FF480630E4A0F49A4
:1058D0002362626600231022E01DA3626362E3621A
:1058E0002367E3666367A26618F0A1FD08492046B6
:1058F00018F09DFD2023A37110BD00BFB80100204A
:1059000021310200201D0020101D00202A3102003C
:105910002E3102002DE9F84F234F4FF0180B14469B
:105920000BFB00720646936A556AAB42884634D830
:10593000D2F820A0AAEB050909F1FF32944211D850
:105940004FF0180906FB09933B442246586841462C
:10595000284418F0C9FD09FB06762C447462012026
:10596000BDE8F88F13449C421BD800FB0BBBBB4423
:105970004A46DBF804002C44284418F0B5FDB4EB8B
:105980000A0406D0DBF80400224608EB090118F0EF
:10599000ABFD182000FB0676E0E7013B5B1BA34252
:1059A000CED20020DCE700BFB8010020034B182254
:1059B00002FB00339A6A586A801A7047B8010020C7
:1059C00004488168406A884203D003494FF08052FE
:1059D0000A6070470C1C002004ED00E0094A0A49E7
:1059E000936809689966094958664B6843F0805383
:1059F0004B60002383F31188BFF36F8F9368986E19
:105A0000704700BF0C1C0020A42B020000ED00E03A
:105A10000F498A684FF028001044EFF3098C80E8A2
:105A2000F01F202080F31188BFF36F8F094F4FF0D4
:105A300000664A6A8A603E60506E0023536680F3B7
:105A4000118802F1280090E8F01F8CF30988704754
:105A50000C1C002004ED00E01EF0040F0CBFEFF35F
:105A60000880EFF30980816911F8021C0229FFD038
:105A700001B518F05BFC01BD43B2002B08DB01222D
:105A800000F01F0002FA00F05B09024A42F823000E
:105A9000704700BF00E100E043B2002B0DDB0122A4
:105AA0005B0900F01F0002FA00F02033034A42F8BD
:105AB0002300BFF34F8FBFF36F8F704700E100E00B
:105AC000054B420900F01F0053F82220012303FA7E
:105AD00000F01040704700BF00E100E043B2002B2F
